S0100000536F6674776172652E73726563C9
S113000000C21AC219C218C217C216C215C214C23B
S113001013C20DC511C210C20FC20EC20DC20CC252
S11300200BC20AC209C20000000000000000000068
S1130030000000000000000000303000000000005C
S113004000030300000000FC03C3C333FC00000FE3
S1130050333030300F000000000CFF0000000000BF
S113006000303F300000000C03C3C3C33C00003C1D
S1130070333030303000000303C3C3F30F00000CEF
S1130080303030300F000000C0300CFF000000039F
S11300900303033F0300003F33333333C300000C37
S11300A0303030300F0000F0CCC3C3C30300000F66
S11300B0303030300F0000030303C3330F0000005F
S11300C0003F00000000003CC3C3C3C33C00000F5A
S11300D0303030300F00003CC3C3C3C3FC000030D9
S11300E03030300C0300000000000000005F00000E
S11300F00007000700147F147F14242A7F2A126249
S11301006408132336495522500005030000001CDF
S11301102241000041221C0014083E081408083E35
S113012008080000A06000080808080800606000D3
S11301300020100804023E5149453E00427F400021
S113014042615149462141454B311814127F102711
S1130150454545393C4A4949300171090503364949
S1130160494936064949291E0036360000005636EC
S11301700000081422410014141414140041221421
S1130180080201510906324959513E7C1211127C70
S11301907F494949363E414141227F4141221C7FEA
S11301A0494949417F090909013E4149497A7F0882
S11301B008087F00417F41002040413F017F08142F
S11301C022417F404040407F020C027F7F040810A0
S11301D07F3E4141413E7F090909063E4151215E6E
S11301E07F09192946464949493101017F01013FE7
S11301F04040403F1F2040201F3F4038403F631491
S113020008146307087008076151494543007F419A
S1130210410002040810200041417F000402010251
S113022004404040404000010204002054545478EB
S11302307F484444383844444420384444487F3850
S113024054545418087E09010218A4A4A47C7F08FD
S113025004047800447D40004080847D007F1028A1
S1130260440000417F40007C041804787C080404A6
S1130270783844444438FC2424241818242418FCD2
S11302807C080404084854545420043F4440203C4F
S11302904040207C1C2040201C3C4030403C4428F2
S11302A01028441CA0A0A07C4464544C440008368C
S11302B0410000007F0000004136080008040810D7
S11302C0087E1111117E7F494949317F49494936D8
S11302D07F01010101C07F417FC07F4949494173CA
S11302E00C7F0C7341494936007F100C027F7F203C
S11302F019047F7F08142241403E01017F7F020CD4
S1130300027F7F0808087F3E4141413E7F01010191
S11303107F7F090909063E4141412201017F010114
S1130320434C300C030E117F110E63140814637FC9
S113033040407FC00708087F007F407F407F7F40A8
S11303407F40FF017F4848307F4830007F7F484826
S113035030004949493E007F083E413E462919097B
S11303607F20545454783C4A4B49307C54542800E0
S11303707C04040400C07C447CC0385454541844A5
S1130380287C284444545428007C2010087C7C2079
S113039012087C7C10284400403C04047C7C081037
S11303A0087C7C10107C0038444444387C04047C71
S11303B0007C14141408384444442004047C0404C9
S11303C084986018041824FC241844281028447CB9
S11303D040407CC00C10107C007C407C407C7C4005
S11303E07C40FC047C5050207C5070007C7C50503D
S11303F0200054545438007C103844384834147C59
S1130400000011241FBECFE5D4E0DEBFCDBF10E055
S1130410A0E6B0E0EAEBF4E102C005900D92A23E42
S1130420B107D9F721E0A2EEB0E001C01D92A635D4
S1130430B207E1F7CCD43FC8E3CD9398611102C071
S113044092980EC0929A0CC0882314F4919A01C019
S113045091989098880F909A9150B1F7939A089533
S113046098E0F2CFCF93DF9360E080E4E6DF60E0D2
S113047080E8E3DFC8EFD1E061E080E0DEDF2197D0
S1130480D9F7DF91CF91089581B38F6181BB94989F
S113049082E08A95F1F700C0949A939882E08A9555
S11304A0F1F700C0939A82E08A95F1F700C060E00A
S11304B081E2C3DF60E088ECC0DF60E086E0BDDF9E
S11304C060E083E1BADF60E080E2B7DFCBDF60E0C9
S11304D08CE0B3DF93980895CF93C82F862F60E004
S11304E08064ABDF60E08C2F8068A7DFCF91089534
S11304F00F931F93CF93DF93803C10F0815601C07C
S1130500805290E08C01000F111F000F111F080F83
S1130510191FC0E0D0E0FE01E00FF11FEA51FF4FC8
S1130520849161E08ADF2196C530D105A1F761E0AD
S113053080E083DFDF91CF911F910F910895CF93D6
S1130540DF93EC01862F642FC7DF8881882329F08D
S11305502196CEDF89918111FCCFDF91CF9108954F
S11305603F924F925F926F927F928F929F92AF923F
S1130570BF92CF92DF92EF92FF920F931F93CF938C
S1130580DF935C01FC018081882349F010E01F5F48
S1130590F501E10FF11D80818111F9CF01C010E057
S11305A060E080E099DFC8EA61E08FEF46DFC15088
S11305B0D9F72AEF2103C00111248C5A9F4F3C0123
S11305C01AF4EFEF6E1A7E0A75946794D12C3A2CC4
S11305D04B2C512C812C912C0F2EF1E67F2EF02DDB
S11305E06D2D862D79DFF5018081882309F449C0BA
S11305F0E32CF42CC52C803C10F400E201C0072D40
S1130600C82DD92D10E0DD20B9F0F701808190E0EC
S1130610801B910BFC01EE0FFF1FEE0FFF1FE80F75
S1130620F91FEA51FF4FEC0FFD1F849182958F70E3
S113063061E0809502DF16C0F701808190E0801BA5
S1130640910BFC01EE0FFF1FEE0FFF1FE80FF91FC8
S1130650EA51FF4FEC0FFD1F84918295807F61E08A
S11306608095EBDE2196C530D10569F661E08FEF08
S1130670E4DEC3947501EC0CF11CF7018081811157
S1130680BACFD394F2E0DF12ABCFDF91CF911F91B9
S11306900F91FF90EF90DF90CF90BF90AF909F901D
S11306A08F907F906F905F904F903F9008959F92AE
S11306B0AF92BF92CF92DF92EF92FF920F931F936C
S11306C0CF93DF93FC0120812223C9F1B42E7C0156
S11306D0D62E8C01C12CA12CD1E099249394940E94
S11306E06B2D8D2DF9DEF8010081003221F00A33E3
S11306F021F00E5203C00A2D01C00D2FF0E10F9F0F
S1130700800111240A5D1F4FCD2F03C00F5F1F4FBF
S1130710CF5FF80184916D2F90DEC83021F4692DEC
S11307208D2DDADEF3CFC03188F3C39487010C0D2D
S1130730111DF8E0DF0EF80180818111D1CFDF9126
S1130740CF911F910F91FF90EF90DF90CF90BF90CA
S1130750AF909F90089580914C01803379F483B3D6
S11307608073803359F083B38073803221F088E33F
S113077097E062D003C086EE97E05ED083B38073C7
S113078080934C019B990DC080914B018823A9F063
S1130790815080934B01811110C088E499E04CD0C2
S11307A00CC080914B01882329F0843619F085EC24
S11307B098E042D084E680934B0165E070E08BEAD8
S11307C093E08BD0089580E380934C0184E680937A
S11307D04B0184B3877C84BB85B3886385BB8BEA78
S11307E093E02AD00895089510924A0110924D0181
S11307F01092490180E090E023EF33E0FC01EE0F1A
S1130800FF1FEE0FFF1FEE51FF4F31832083138232
S1130810128201968F30910589F70895F89483B771
S11308208B7F83BF83B7836083BF83E882BF89B72D
S1130830816089BF789408950FB607FE16C0F894B6
S1130840209149012431E0F00EC091E001C090E014
S113085010924D01809149018F5F80934901992342
S1130860D9F1789408957894089520914901243118
S113087000F10895809149018F5F80934901F1CF80
S1130880E0914D01F0E0EE0FFF1FE25EFE4F918319
S1130890808380914D018F5F80934D0180914D0144
S11308A0843141F7D2CF809149018F5F8093490110
S11308B00895E0914D01F0E0EE0FFF1FE25EFE4F60
S11308C09183808380914D018F5F80934D0180914E
S11308D04D01843141F7BBCF0895CF930FB607FE86
S11308E00CC0F894C1E00AC02F5F3F4F2F30310590
S11308F039F4CC2311F1789420C0C0E020E030E03A
S1130900D901F901EE0FFF1FEE0FFF1FEE51FF4F4C
S113091040815181435F534039F7CC2309F07894E7
S1130920AA0FBB1FAA0FBB1FAE51BF4F11969C93BA
S11309308E9313967C936E931297CF910895DC0156
S11309408091E2009091E3008A179B0789F090E080
S11309509F5F292F30E0F901EE0FFF1FEE0FFF1FFD
S1130960EE51FF4F408151814A175B0789F702C05E
S113097020E030E0220F331F220F331FF901EE5124
S1130980FF4F738362830895BC018091E2009091CC
S1130990E3008617970751F490E017C091E0920F97
S11309A02F5F3F4F2F30310519F40FC021E030E0A5
S11309B0922FF901EE0FFF1FEE0FFF1FEE51FF4FB5
S11309C0408151814617570749F7E92FF0E0EE0FB0
S11309D0FF1FEE0FFF1FEE51FF4F83EF93E0918354
S11309E08083828193810895F894809149018823BA
S11309F0E1F0E0914A01F0E0EE0FFF1FE25EFE4FEE
S1130A000190F081E02D80914A018F5F80934A012B
S1130A1080914A01843111F410924A018091490174
S1130A2081508093490178940995789408951F9290
S1130A300F920FB60F921124EF92FF920F931F9310
S1130A402F933F934F935F936F937F938F939F93D2
S1130A50AF93BF93CF93DF93EF93FF9383E882BF6A
S1130A60E12CF12C03EF13E0C701F701EE0FFF1F98
S1130A70EE0FFF1FEE51FF4F20813181235F334082
S1130A8021F1F701EE0FFF1FEE0FFF1FEE51FF4F95
S1130A9022813381232B69F0880F991F880F991FB6
S1130AA0FC01EE51FF4F82819381019793838283EE
S1130AB00CC0880F991F880F991FEC01CE51DF4F8E
S1130AC088819981B9DE198308838FEFE81AF80ABF
S1130AD04FE0E416F10441F6FF91EF91DF91CF91DD
S1130AE0BF91AF919F918F917F916F915F914F9142
S1130AF03F912F911F910F91FF90EF900F900FBE98
S1130B000F901F901895CF92DF92EF92FF920F9360
S1130B101F93CF93DF93CDB7DEB729970FB6F89421
S1130B20DEBF0FBECDBF10914701123308F05DC088
S1130B300F2EF3E5CF2EF1E0DF2EF02DFE013396DC
S1130B40BE01645F7F4F0F2EFDECFF2EF02D0AE3F4
S1130B50D6019D916D019F01225031099F9D812DE8
S1130B60112486958695869540E3480FD9014C93C8
S1130B70AF0141505109880F282F220F220F820FF5
S1130B80981B905DDA019C9300833396E617F70770
S1130B90F9F619868DEC189F812D1124869586957A
S1130BA08695880F982F990F990F890F181BB9F004
S1130BB090914601992399F0812F90E09C01220F96
S1130BC0331F820F931F919581959109FE01E80FC0
S1130BD0F91F20E22287FE01E80FF91F238743E073
S1130BE06AE0CE01019663DD87C001E010E00F2EBC
S1130BF0FDECFF2EF02D0F2EF9E2DF2EF02D689480
S1130C00EE24E5F8809147018F9D912D112496954E
S1130C1096959695990F292F220F220F920F891BD3
S1130C2090E08017910721F4809146018130A9F169
S1130C30F801E15BFE4F90819D9D212D11242295A9
S1130C402F70205D29839F9D812D11248695869583
S1130C5086958F9D312D1124369536953695330F13
S1130C60432F440F440F340FB82FB31B3B2F305D79
S1130C703A83880F382F330F330F830F981B905DFF
S1130C809B831C82203399F101C0EA8242E0400F29
S1130C9066E3CE01019653DC06C042E0400F66E3F2
S1130CA08EE690E04CDC0F5F1F4F0330110509F016
S1130CB0A9CF80914701853321F480914601813089
S1130CC081F080915201882331F045E066E380E6AB
S1130CD090E035DC11C045E066E386E690E02FDC69
S1130CE00BC045E066E38CE690E029DC05C0E982B0
S1130CF08A81803351F2CACF29960FB6F894DEBFA9
S1130D000FBECDBFDF91CF911F910F91FF90EF9058
S1130D10DF90CF900895CF93DF9363E080E0DCDB36
S1130D20CCEFD0E061E080E088DB2197D9F78091B7
S1130D3047019DEC899F812D112486958695869582
S1130D408230A1F028F4882349F0813059F02CC076
S1130D508430A1F078F08530A9F026C082E790E0D5
S1130D60FFDB22C08DE790E0FBDB1EC088E890E04B
S1130D70F7DB1AC083E990E0F3DB16C08EE990E05C
S1130D80EFDB12C089EA90E0EBDB43E060E085EB47
S1130D9090E0D5DB44E060E084EC90E0D0DB45E01B
S1130DA060E083ED90E0CBDBAEDEDF91CF91089580
S1130DB09091460181E089278093460183E895E07C
S1130DC03BDD64EF71E088ED96E087DD0895B89A25
S1130DD0C0980ADD23DD00E010E0C0E5D1E00F2E6D
S1130DE0F3E5EF2EF1E0FF2EF02DC80132D3899305
S1130DF00F5F1F4FCE15DF05C1F780914701CDEC82
S1130E008C9FC12D1124C695C695C695D0E0CC0FF4
S1130E10DD1FCC0FDD1FCD5FDF4FCE0122D303E5F5
S1130E2011E020E13EE040E050E0F1D2F8012083FF
S1130E30CE0117D30F2EFCE3CF2ED12CE12CF12CB5
S1130E40F02DA7019601E3D2CA01B901A7019601C9
S1130E50DED2F8016183CE0104D3A7019601D7D273
S1130E60F8016283B0DC10DBFDDA55DFBDDDFECFB7
S1130E70CF92DF92EF92FF920F931F93CF93DF9362
S1130E8080914801811199C080914701CDEC8C9FDC
S1130E90C12D1124C695C695C695CC0F9C2F990FCC
S1130EA0990FC90F982F9C1BC92F09F042C0823398
S1130EB019F41092470106C0CAE0C80FC093470155
S1130EC0C23399F18DECC89FC12D1124C695C695E6
S1130ED0C695D0E0CC0FDD1FCC0FDD1FCD5FDF4FFB
S1130EE0CE01BFD203E511E020E13EE040E050E056
S1130EF08ED2F8012083CE01B4D20F2EFCE3CF2E84
S1130F00D12CE12CF12CF02DA701960180D2CA013D
S1130F10B901A70196017BD2F8016183CE01A1D268
S1130F20A701960174D2F80162838BE896E084DC11
S1130F3044C08233D0F493E09C1B292F30E0F901A4
S1130F40ED5AFE4F80818F5F8083992339F08C3373
S1130F5051F5F901ED5AFE4F108225C0843619F57A
S1130F60F901ED5AFE4F10821EC0C150C13051F03C
S1130F7018F0C23091F017C0E0E5F1E080818F5F96
S1130F80808311C080915101865F853618F4809367
S1130F90510109C01092510106C0E0E5F1E09281CF
S1130FA081E0892782831092460164EF71E088ED25
S1130FB096E0C5DC83E895E03FDCDF91CF911F919B
S1130FC00F91FF90EF90DF90CF900895CF92DF9232
S1130FD0EF92FF920F931F93CF93DF938091480179
S1130FE081119DC0C09147018DECC89F812D1124B2
S1130FF0869586958695880F982F990F990F890F56
S11310009C2F981B892F09F042C0C11104C082E3B0
S11310108093470138C0CA50C0934701C23399F145
S11310208DECC89FC12D1124C695C695C695D0E0F8
S1131030CC0FDD1FCC0FDD1FCD5FDF4FCE0111D2F2
S113104003E511E020E13EE040E050E0E0D1F801AA
S11310502083CE0106D20F2EFCE3CF2ED12CE12C1F
S1131060F12CF02DA7019601D2D1CA01B901A70133
S11310709601CDD1F8016183CE01F3D1A701960188
S1131080C6D1F80162838BE896E0D6DB48C0C23350
S1131090E8F433E0391B832F90E0FC01ED5AFE4F56
S11310A02081215028F0FC01ED5AFE4F20832DC0F1
S11310B0332331F0FC01ED5AFE4F2BE3208325C08E
S11310C0FC01ED5AFE4F23E620831FC0815081307E
S11310D051F018F0823099F018C0E0E5F1E0808119
S11310E08150808312C0809151018A50853618F452
S11310F0809351010AC084E68093510106C0E0E563
S1131100F1E0928181E0892782831092460164EFA5
S113111071E088ED96E013DC83E895E08DDBDF91E8
S1131120CF911F910F91FF90EF90DF90CF90089592
S11311308091480181110AC08091500180934E0131
S113114068EE73E08BEC99E0C8DB08C0823031F4C0
S113115060914F0170E08BEC99E0BFDB81E08093FC
S1131160480180914E01811101C0C09A0895809177
S11311704801813049F4C0988BEC99E005DC8093F8
S11311804F0182E0809348010895909147018DECCE
S1131190989F812D1124869586958695880F282FF2
S11311A0220F220F820F98130AC0923300F5809108
S11311B04801813011F4DBDF0895BADF089531E08E
S11311C0390F8DEC389F812D11248695869586954F
S11311D0880F282F220F220F820F232F281B243041
S11311E019F0309347010895925090934701089560
S11311F0CF92DF92EF92FF920F931F93CF93DF93DF
S1131200C09880914801813019F48BEC99E0BCDBE3
S11312101092480180914701CDEC8C9FC12D11247F
S1131220C695C695C695D0E0CC0FDD1FCC0FDD1F4B
S1131230CD5FDF4FCE0115D103E511E020E13EE0A3
S113124040E050E0E4D0F8012083CE010AD10F2E13
S1131250FCE3CF2ED12CE12CF12CF02DA70196012B
S1131260D6D0CA01B901A7019601D1D0F801618392
S1131270CE01F7D0A7019601CAD0F8016283DF91AD
S1131280CF911F910F91FF90EF90DF90CF90089531
S1131290EF92FF920F931F93CF93DF9380914801B6
S11312A081116EC0909147018DEC989F812D11247E
S11312B0869586958695880F282F220F220F820FF8
S11312C0292F281B59F49F5F9093470110924601E0
S11312D064EF71E088ED96E000DB56C0921B9093BA
S11312E04701923348F5E3E5F1E0808120E13EE0F7
S11312F0829FA001839F500D112481812CE3829F42
S1131300400D511D11248281480F511D052E000CE2
S1131310660B770B8DEC989F812D1124982F969551
S113132096959695892F90E0880F991F880F991F9D
S11313308D5F9F4FA8D013C000E511E0C0E0D0E05E
S11313400F2EF3E5EF2EF1E0FF2EF02DF801619161
S11313508F01CE018BD021960E151F05B9F710927F
S1131360460188ED96E010DB88ED90E0F9D868EE50
S113137073E08BE896E0B1DA83E895E05DDA04C0C7
S113138037DF83E895E058DADF91CF911F910F9111
S1131390FF90EF90089568EE73E08BEC99E09DDA8E
S11313A083E895E049DA80914E01811129C080914A
S11313B05501882379F08150E3E5F1E0828390813F
S11313C0911124C090915401911120C081111EC02B
S11313D00FDF0895E3E5F1E08BE3828381818823C5
S11313E021F08150809354010895E3E5F1E08BE30B
S11313F081838081882351F0815080935301089523
S1131400815080934E01811101C0C09A0895A1E2D8
S11314101A2EAA1BBB1BFD010DC0AA1FBB1FEE1F6A
S1131420FF1FA217B307E407F50720F0A21BB30BB5
S1131430E40BF50B661F771F881F991F1A9469F731
S113144060957095809590959B01AC01BD01CF018D
S11314500895E199FECF9FBB8EBBE09A99278DB387
S11314600895A6E1B0E044E050E017C0262FE199CA
S1131470FECF9FBB8EBB2DBB0FB6F894E29AE19AC8
S11314800FBE01960895242FF2DF252FF0DF00C050
S1131490EDDF272FECCFDC01CB01FC01E199FECF7E
S11314A006C0FFBBEEBBE09A31960DB20D924150DF
S10D14B05040B8F70895F894FFCFF8
S11314BA20C2EAEB2E00C2FBEAEB2E0020202020F9
S11314CA20003CD0E5E6E8EC2023313E003CD0E5A0
S11314DAE6E8EC2023323E003CD0E5E6E8EC2023A3
S11314EA333E003CD0E5E6E8EC2023343E003CD011
S11314FAE5E6E8EC2023353E003CCDE0F1F2F0EEDF
S113150AE9EAE83E00C7E0E4E5F0E6EAE020202064
S113151A2020F100DFF0EAEEF1F2FC202020202066
S113152A202500C7E2F3EA00D1EEF5F0E0EDE5ED9F
S105153AEE00BD
S9030000FC
