:1000000000C21AC219C218C217C216C215C214C23F
:1000100013C2B8C411C210C20FC20EC20DC20CC2AC
:100020000BC20AC209C2000000000000000000006C
:100030000000000000000000003030000000000060
:1000400000030300000000FC03C3C333FC00000FE7
:10005000333030300F000000000CFF0000000000C3
:1000600000303F300000000C03C3C3C33C00003C21
:10007000333030303000000303C3C3F30F00000CF3
:10008000303030300F000000C0300CFF00000003A3
:100090000303033F0300003F33333333C300000C3B
:1000A000303030300F0000F0CCC3C3C30300000F6A
:1000B000303030300F0000030303C3330F00000063
:1000C000003F00000000003CC3C3C3C33C00000F5E
:1000D000303030300F00003CC3C3C3C3FC000030DD
:1000E0003030300C0300000000000000005F000012
:1000F0000007000700147F147F14242A7F2A12624D
:100100006408132336495522500005030000001CE3
:100110002241000041221C0014083E081408083E39
:1001200008080000A06000080808080800606000D7
:100130000020100804023E5149453E00427F400025
:1001400042615149462141454B311814127F102715
:10015000454545393C4A494930017109050336494D
:10016000494936064949291E0036360000005636F0
:100170000000081422410014141414140041221425
:10018000080201510906324959513E7C1211127C74
:100190007F494949363E414141227F4141221C7FEE
:1001A000494949417F090909013E4149497A7F0886
:1001B00008087F00417F41002040413F017F081433
:1001C00022417F404040407F020C027F7F040810A4
:1001D0007F3E4141413E7F090909063E4151215E72
:1001E0007F09192946464949493101017F01013FEB
:1001F0004040403F1F2040201F3F4038403F631495
:1002000008146307087008076151494543007F419E
:10021000410002040810200041417F000402010255
:1002200004404040404000010204002054545478EF
:100230007F484444383844444420384444487F3854
:1002400054545418087E09010218A4A4A47C7F0801
:1002500004047800447D40004080847D007F1028A5
:10026000440000417F40007C041804787C080404AA
:10027000783844444438FC2424241818242418FCD6
:100280007C080404084854545420043F4440203C53
:100290004040207C1C2040201C3C4030403C4428F6
:1002A0001028441CA0A0A07C4464544C4400083690
:1002B000410000007F0000004136080008040810DB
:1002C000087E1111117E7F494949317F49494936DC
:1002D0007F01010101C07F417FC07F4949494173CE
:1002E0000C7F0C7341494936007F100C027F7F2040
:1002F00019047F7F08142241403E01017F7F020CD8
:10030000027F7F0808087F3E4141413E7F01010195
:100310007F7F090909063E4141412201017F010118
:10032000434C300C030E117F110E63140814637FCD
:1003300040407FC00708087F007F407F407F7F40AC
:100340007F40FF017F4848307F4830007F7F48482A
:1003500030004949493E007F083E413E462919097F
:100360007F20545454783C4A4B49307C54542800E4
:100370007C04040400C07C447CC0385454541844A9
:10038000287C284444545428007C2010087C7C207D
:1003900012087C7C10284400403C04047C7C08103B
:1003A000087C7C10107C0038444444387C04047C75
:1003B000007C14141408384444442004047C0404CD
:1003C00084986018041824FC241844281028447CBD
:1003D00040407CC00C10107C007C407C407C7C4009
:1003E0007C40FC047C5050207C5070007C7C505041
:1003F000200054545438007C103844384834147C5D
:10040000000011241FBECFE5D4E0DEBFCDBF10E059
:10041000A0E6B0E0EAEBFDE002C005900D92A43D3D
:10042000B107D9F721E0A4EDB0E001C01D92A134DD
:10043000B207E1F7D5D3BFC4E3CD9398611102C0F1
:1004400092980EC0929A0CC0882314F4919A01C01D
:1004500091989098880F909A9150B1F7939A089537
:1004600098E0F2CFCF93DF9360E080E4E6DF60E0D6
:1004700080E8E3DFC8EFD1E061E080E0DEDF2197D4
:10048000D9F7DF91CF91089581B38F6181BB9498A3
:1004900082E08A95F1F700C0949A939882E08A9559
:1004A000F1F700C0939A82E08A95F1F700C060E00E
:1004B00081E2C3DF60E088ECC0DF60E086E0BDDFA2
:1004C00060E083E1BADF60E080E2B7DFCBDF60E0CD
:1004D0008CE0B3DF93980895CF93C82F862F60E008
:1004E0008064ABDF60E08C2F8068A7DFCF91089538
:1004F0000F931F93CF93DF93803C10F0815601C080
:10050000805290E08C01000F111F000F111F080F87
:10051000191FC0E0D0E0FE01E00FF11FEA51FF4FCC
:10052000849161E08ADF2196C530D105A1F761E0B1
:1005300080E083DFDF91CF911F910F910895CF93DA
:10054000DF93EC01862F642FC7DF8881882329F091
:100550002196CEDF89918111FCCFDF91CF91089553
:100560003F924F925F926F927F928F929F92AF9243
:10057000BF92CF92DF92EF92FF920F931F93CF9390
:10058000DF935C01FC018081882349F010E01F5F4C
:10059000F501E10FF11D80818111F9CF01C010E05B
:1005A00060E080E099DFC8EA61E08FEF46DFC1508C
:1005B000D9F72AEF2103C00111248C5A9F4F3C0127
:1005C0001AF4EFEF6E1A7E0A75946794D12C3A2CC8
:1005D0004B2C512C812C912C0F2EF1E67F2EF02DDF
:1005E0006D2D862D79DFF5018081882309F449C0BE
:1005F000E32CF42CC52C803C10F400E201C0072D44
:10060000C82DD92D10E0DD20B9F0F701808190E0F0
:10061000801B910BFC01EE0FFF1FEE0FFF1FE80F79
:10062000F91FEA51FF4FEC0FFD1F849182958F70E7
:1006300061E0809502DF16C0F701808190E0801BA9
:10064000910BFC01EE0FFF1FEE0FFF1FE80FF91FCC
:10065000EA51FF4FEC0FFD1F84918295807F61E08E
:100660008095EBDE2196C530D10569F661E08FEF0C
:10067000E4DEC3947501EC0CF11CF701808181115B
:10068000BACFD394F2E0DF12ABCFDF91CF911F91BD
:100690000F91FF90EF90DF90CF90BF90AF909F9021
:1006A0008F907F906F905F904F903F9008959F92B2
:1006B000AF92BF92CF92DF92EF92FF920F931F9370
:1006C000CF93DF93FC0120812223C9F1B42E7C015A
:1006D000D62E8C01C12CA12CD1E099249394940E98
:1006E0006B2D8D2DF9DEF8010081003221F00A33E7
:1006F00021F00E5203C00A2D01C00D2FF0E10F9F13
:10070000800111240A5D1F4FCD2F03C00F5F1F4FC3
:10071000CF5FF80184916D2F90DEC83021F4692DF0
:100720008D2DDADEF3CFC03188F3C39487010C0D31
:10073000111DF8E0DF0EF80180818111D1CFDF912A
:10074000CF911F910F91FF90EF90DF90CF90BF90CE
:10075000AF909F90089580913C01803379F483B3EA
:100760008073803359F083B38073803221F089EF36
:1007700095E062D003C086E496E05ED083B38073D8
:1007800080933C019B990DC080913B018823A9F087
:10079000815080933B01811110C08AEB96E04CD0D0
:1007A0000CC080913B01882329F0843619F081E93F
:1007B00096E042D084E680933B0165E070E08BEAEE
:1007C00093E08BD0089580E380933C0184E680938E
:1007D0003B0184B3877C84BB85B3886385BB8BEA8C
:1007E00093E02AD00895089510923A0110923D01A5
:1007F0001092390180E090E023EF33E0FC01EE0F2E
:10080000FF1FEE0FFF1FEC52FF4F31832083138237
:10081000128201968F30910589F70895F89483B775
:100820008B7F83BF83B7836083BF83E882BF89B731
:10083000816089BF789408950FB607FE16C0F894BA
:10084000209139012431E0F00EC091E001C090E028
:1008500010923D01809139018F5F80933901992376
:10086000D9F178940895789408952091390124312C
:1008700000F10895809139018F5F80933901F1CFA4
:10088000E0913D01F0E0EE0FFF1FE05FFE4F91832E
:10089000808380913D018F5F80933D0180913D0178
:1008A000843141F7D2CF809139018F5F8093390134
:1008B0000895E0913D01F0E0EE0FFF1FE05FFE4F75
:1008C0009183808380913D018F5F80933D01809172
:1008D0003D01843141F7BBCF0895CF930FB607FE9A
:1008E0000CC0F894C1E00AC02F5F3F4F2F30310594
:1008F00039F4CC2311F1789420C0C0E020E030E03E
:10090000D901F901EE0FFF1FEE0FFF1FEC52FF4F51
:1009100040815181435F534039F7CC2309F07894EB
:10092000AA0FBB1FAA0FBB1FAC52BF4F11969C93BF
:100930008E9313967C936E931297CF910895F894AB
:10094000809139018823E1F0E0913A01F0E0EE0F67
:10095000FF1FE05FFE4F0190F081E02D80913A0192
:100960008F5F80933A0180913A01843111F41092A3
:100970003A01809139018150809339017894099529
:10098000789408951F920F920FB60F921124EF9250
:10099000FF920F931F932F933F934F935F936F9308
:1009A0007F938F939F93AF93BF93CF93DF93EF93F7
:1009B000FF9383E882BFE12CF12C03EF13E0C70122
:1009C000F701EE0FFF1FEE0FFF1FEC52FF4F2081CC
:1009D0003181235F334021F1F701EE0FFF1FEE0F4E
:1009E000FF1FEC52FF4F22813381232B69F0880FC8
:1009F000991F880F991FFC01EC52FF4F8281938150
:100A00000197938382830CC0880F991F880F991FC9
:100A1000EC01CC52DF4F888199810EDF1983088366
:100A20008FEFE81AF80A4FE0E416F10441F6FF915F
:100A3000EF91DF91CF91BF91AF919F918F917F9176
:100A40006F915F914F913F912F911F910F91FF9067
:100A5000EF900F900FBE0F901F901895EF92FF929E
:100A60000F931F93CF93DF93CDB7DEB729970FB6C0
:100A7000F894DEBF0FBECDBF0F2EFEE3EF2EF1E0E8
:100A8000FF2EF02DFE013396BE01645F7F4F0DEC0B
:100A90001AE3D7019D917D019F0122503109909F5A
:100AA000812D112486958695869540E3480FD901BE
:100AB0004C93AF0141505109880F282F220F220F6C
:100AC000820F981B905DDA019C9310833396E61792
:100AD000F707F9F6198643E06AE0CE010196E7DDF3
:100AE00029960FB6F894DEBF0FBECDBFDF91CF9130
:100AF0001F910F91FF90EF900895B4DC8091380121
:100B00009DEC899F812D112486958695869582304E
:100B1000B1F028F4882349F0813061F008958430E1
:100B2000C1F090F08530D1F0089580E690E018DDB6
:100B300095DF08958BE690E013DD90DF089586E75A
:100B400090E00EDD8BDF089581E890E009DD86DF1F
:100B500008958CE890E004DD81DF089587E990E056
:100B6000FFDC43E060E083EA90E0E9DC44E060E041
:100B700082EB90E0E4DC45E060E081EC90E0DFDCDB
:100B80000895EF92FF920F931F93CF93DF9380917D
:100B90003801CDEC8C9FC12D1124C695C695C69504
:100BA000D0E0CE01880F991FC80FD91FC050D04088
:100BB0000EE311E00F2EF1E4EF2EF1E0FF2EF02D09
:100BC000CE01F1D0F80181938F012196EE15FF053A
:100BD000B9F7DF91CF911F910F91FF90EF9008959A
:100BE00003DE1CDECEDFEFDD4FDC3CDC86DFA7DE84
:100BF000FECFEF92FF920F931F93CF93DF938091DD
:100C00003801CDEC8C9FC12D1124C695C695C69593
:100C1000CC0F9C2F990F990FC90F982F9C1BC92F90
:100C200059F5823319F41092380106C0CAE0C80F92
:100C3000C0933801C23301F18DECC89FC12D11243E
:100C4000C695C695C695D0E0CE01880F991FC80FEE
:100C5000D91FC050D0400EE311E00F2EF1E4EF2E6B
:100C6000F1E0FF2EF02DCE019ED0F80181938F018F
:100C70002196EE15FF05B9F78DE795E0DDDDDF91F3
:100C8000CF911F910F91FF90EF900895EF92FF92F7
:100C90000F931F93CF93DF93C09138018DECC89FC2
:100CA000812D1124869586958695880F982F990F0A
:100CB000990F890FC8132BC0C11104C082E3809320
:100CC000380125C0CA50C0933801C23301F18DEC00
:100CD000C89FC12D1124C695C695C695D0E0CE01FA
:100CE000880F991FC80FD91FC050D0400EE311E0E4
:100CF0000F2EF1E4EF2EF1E0FF2EF02DCE0153D0B8
:100D0000F80181938F012196EE15FF05B9F78DE764
:100D100095E092DDDF91CF911F910F91FF90EF90C1
:100D20000895909138018DEC989F812D112486951E
:100D300086958695880F282F220F220F820F9817ED
:100D4000C1F031E0390F8DEC389F812D112486954B
:100D500086958695880F282F220F220F820F232F2A
:100D6000281B243019F03093380108959250909345
:100D700038010895909138018DEC989F812D1124B0
:100D8000869586958695880F282F220F220F820F31
:100D9000292F281B21F49F5F909338010895921BFF
:100DA000909338010895E199FECF9FBB8EBBE09AE6
:0A0DB00099278DB30895F894FFCF42
:100DBA003CD0E5E6E8EC2023313E003CD0E5E6E80D
:100DCA00EC2023323E003CD0E5E6E8EC2023333E1B
:100DDA00003CD0E5E6E8EC2023343E003CD0E5E6D2
:100DEA00E8EC2023353E003CCDE0F1F2F0EEE9EAF2
:100DFA00E83E00C7E0E4E5F0E6EAE02020353920E5
:100E0A00F100DFF0EAEEF1F2FC202031303020254B
:100E1A0000C7E2F3EA202020202020C2EAEB2E00BD
:040E2A002020000084
:00000001FF
