S0100000536F6674776172652E73726563C9
S113000005C21FC21EC21DC21CC21BC21AC219C213
S113001018C212C516C215C214C213C212C211C22A
S113002010C20FC20EC20000000000000000000059
S1130030000000000000000000303000000000005C
S113004000030300000000FC03C3C333FC00000FE3
S1130050333030300F000000000CFF0000000000BF
S113006000303F300000000C03C3C3C33C00003C1D
S1130070333030303000000303C3C3F30F00000CEF
S1130080303030300F000000C0300CFF000000039F
S11300900303033F0300003F33333333C300000C37
S11300A0303030300F0000F0CCC3C3C30300000F66
S11300B0303030300F0000030303C3330F0000005F
S11300C0003F00000000003CC3C3C3C33C00000F5A
S11300D0303030300F00003CC3C3C3C3FC000030D9
S11300E03030300C0300000000000000005F00000E
S11300F00007000700147F147F14242A7F2A126249
S11301006408132336495522500005030000001CDF
S11301102241000041221C0014083E081408083E35
S113012008080000A06000080808080800606000D3
S11301300020100804023E5149453E00427F400021
S113014042615149462141454B311814127F102711
S1130150454545393C4A4949300171090503364949
S1130160494936064949291E0036360000005636EC
S11301700000081422410014141414140041221421
S1130180080201510906324959513E7C1211127C70
S11301907F494949363E414141227F4141221C7FEA
S11301A0494949417F090909013E4149497A7F0882
S11301B008087F00417F41002040413F017F08142F
S11301C022417F404040407F020C027F7F040810A0
S11301D07F3E4141413E7F090909063E4151215E6E
S11301E07F09192946464949493101017F01013FE7
S11301F04040403F1F2040201F3F4038403F631491
S113020008146307087008076151494543007F419A
S1130210410002040810200041417F000402010251
S113022004404040404000010204002054545478EB
S11302307F484444383844444420384444487F3850
S113024054545418087E09010218A4A4A47C7F08FD
S113025004047800447D40004080847D007F1028A1
S1130260440000417F40007C041804787C080404A6
S1130270783844444438FC2424241818242418FCD2
S11302807C080404084854545420043F4440203C4F
S11302904040207C1C2040201C3C4030403C4428F2
S11302A01028441CA0A0A07C4464544C440008368C
S11302B0410000007F0000004136080008040810D7
S11302C0087E1111117E7F494949317F49494936D8
S11302D07F01010101C07F417FC07F4949494173CA
S11302E00C7F0C7341494936007F100C027F7F203C
S11302F019047F7F08142241403E01017F7F020CD4
S1130300027F7F0808087F3E4141413E7F01010191
S11303107F7F090909063E4141412201017F010114
S1130320434C300C030E117F110E63140814637FC9
S113033040407FC00708087F007F407F407F7F40A8
S11303407F40FF017F4848307F4830007F7F484826
S113035030004949493E007F083E413E462919097B
S11303607F20545454783C4A4B49307C54542800E0
S11303707C04040400C07C447CC0385454541844A5
S1130380287C284444545428007C2010087C7C2079
S113039012087C7C10284400403C04047C7C081037
S11303A0087C7C10107C0038444444387C04047C71
S11303B0007C14141408384444442004047C0404C9
S11303C084986018041824FC241844281028447CB9
S11303D040407CC00C10107C007C407C407C7C4005
S11303E07C40FC047C5050207C5070007C7C50503D
S11303F0200054545438007C103844384834147C59
S1130400000002030509101C305491FF11241FBE83
S1130410CFE5D4E0DEBFCDBF10E0A0E6B0E0E2E778
S1130420F5E102C005900D92AE3FB107D9F721E086
S1130430AEEFB0E001C01D92A237B207E1F721D5BB
S113044096C8DECD9398611102C092980EC0929A1C
S11304500CC0882314F4919A01C091989098880F45
S1130460909A9150B1F7939A089598E0F2CFCF9370
S1130470DF9360E080E4E6DF60E080E8E3DFC8EF7C
S1130480D1E061E080E0DEDF2197D9F7DF91CF9101
S1130490089581B38F6181BB949882E08A95F1F7C6
S11304A000C0949A939882E08A95F1F700C0939AD9
S11304B082E08A95F1F700C060E081E2C3DF60E08A
S11304C088ECC0DF60E086E0BDDF60E083E1BADF96
S11304D060E080E2B7DFCBDF60E08CE0B3DF9398CD
S11304E00895CF93C82F862F60E08064ABDF60E06F
S11304F08C2F8068A7DFCF9108950F931F93CF931C
S1130500DF93803C10F0815601C0805290E08C0152
S1130510000F111F000F111F080F191FC0E0D0E0BA
S1130520FE01E00FF11FEA51FF4F849161E08ADF81
S11305302196C530D105A1F761E080E083DFDF912A
S1130540CF911F910F910895CF93DF93EC01862FE4
S1130550642FC7DF8881882329F02196CEDF899113
S11305608111FCCFDF91CF9108953F924F925F921A
S11305706F927F928F929F92AF92BF92CF92DF92AF
S1130580EF92FF920F931F93CF93DF935C01FC01D3
S11305908081882349F010E01F5FF501E10FF11D10
S11305A080818111F9CF01C010E060E080E099DF23
S11305B0C8EA61E08FEF46DFC150D9F72AEF210383
S11305C0C00111248C5A9F4F3C011AF4EFEF6E1AAC
S11305D07E0A75946794D12C3A2C4B2C512C812C87
S11305E0912C0F2EF1E67F2EF02D6D2D862D79DFC7
S11305F0F5018081882309F449C0E32CF42CC52C2F
S1130600803C10F400E201C0072DC82DD92D10E064
S1130610DD20B9F0F701808190E0801B910BFC0193
S1130620EE0FFF1FEE0FFF1FE80FF91FEA51FF4FF8
S1130630EC0FFD1F849182958F7061E0809502DF3D
S113064016C0F701808190E0801B910BFC01EE0F36
S1130650FF1FEE0FFF1FE80FF91FEA51FF4FEC0FCA
S1130660FD1F84918295807F61E08095EBDE219669
S1130670C530D10569F661E08FEFE4DEC3947501FE
S1130680EC0CF11CF70180818111BACFD394F2E014
S1130690DF12ABCFDF91CF911F910F91FF90EF90BD
S11306A0DF90CF90BF90AF909F908F907F906F908E
S11306B05F904F903F9008959F92AF92BF92CF92D8
S11306C0DF92EF92FF920F931F93CF93DF93FC017E
S11306D020812223C9F1B42E7C01D62E8C01C12C99
S11306E0A12CD1E099249394940E6B2D8D2DF9DED9
S11306F0F8010081003221F00A3321F00E5203C0C8
S11307000A2D01C00D2FF0E10F9F800111240A5D15
S11307101F4FCD2F03C00F5F1F4FCF5FF801849190
S11307206D2F90DEC83021F4692D8D2DDADEF3CFE4
S1130730C03188F3C39487010C0D111DF8E0DF0E5E
S1130740F80180818111D1CFDF91CF911F910F9159
S1130750FF90EF90DF90CF90BF90AF909F9008955F
S113076080916801803379F483B38073803359F0C6
S113077083B38073803221F089E997E062D003C0AB
S11307808DE398E05ED083B38073809368019B9976
S11307900DC0809167018823A9F08150809367017F
S11307A0811110C08DE999E04CD00CC08091670193
S11307B0882329F0843619F083E699E042D084E650
S11307C08093670165E070E080EB93E08BD008953F
S11307D080E38093680184E68093670184B3877C17
S11307E084BB85B3886385BB80EB93E02AD00895EE
S11307F0089510926601109269011092650180E0DB
S113080090E028EF33E0FC01EE0FFF1FEE0FFF1F17
S1130810E250FF4F318320831382128201968F307E
S1130820910589F70895F89483B78B7F83BF83B7C5
S1130830836083BF83E882BF89B7816089BF78946E
S113084008950FB607FE16C0F8942091650124316F
S1130850E0F00EC091E001C090E010926901809137
S113086065018F5F809365019923D9F17894089588
S11308707894089520916501243100F108958091C0
S113088065018F5F80936501F1CFE0916901F0E02C
S1130890EE0FFF1FE65CFE4F918380838091690118
S11308A08F5F8093690180916901843141F7D2CFD0
S11308B0809165018F5F809365010895E0916901DE
S11308C0F0E0EE0FFF1FE65CFE4F91838083809182
S11308D069018F5F8093690180916901843141F7D7
S11308E0BBCF0895CF930FB607FE0CC0F894C1E0B8
S11308F00AC02F5F3F4F2F30310539F4CC2311F15B
S1130900789420C0C0E020E030E0D901F901EE0F76
S1130910FF1FEE0FFF1FE250FF4F40815181485FE0
S1130920534039F7CC2309F07894AA0FBB1FAA0FC0
S1130930BB1FA250BF4F11969C938E9313967C932A
S11309406E931297CF910895DC018091FE009091EF
S1130950FF008A179B0789F090E09F5F292F30E002
S1130960F901EE0FFF1FEE0FFF1FE250FF4F408112
S113097051814A175B0789F702C020E030E0220F5B
S1130980331F220F331FF901E250FF4F7383628339
S11309900895BC018091FE009091FF00861797078F
S11309A051F490E017C091E0920F2F5F3F4F2F302A
S11309B0310519F40FC021E030E0922FF901EE0F58
S11309C0FF1FEE0FFF1FE250FF4F4081518146177A
S11309D0570749F7E92FF0E0EE0FFF1FEE0FFF1F57
S11309E0E250FF4F88EF93E091838083828193816B
S11309F00895F894809165018823E1F0E0916601FF
S1130A00F0E0EE0FFF1FE65CFE4F0190F081E02D59
S1130A10809166018F5F80936601809166018431C5
S1130A2011F41092660180916501815080936501F3
S1130A3078940995789408951F920F920FB60F92A7
S1130A401124EF92FF920F931F932F933F934F9391
S1130A505F936F937F938F939F93AF93BF93CF9342
S1130A60DF93EF93FF9383E882BFE12CF12C08EF2F
S1130A7013E0C701F701EE0FFF1FEE0FFF1FE25057
S1130A80FF4F20813181285F334021F1F701EE0FC0
S1130A90FF1FEE0FFF1FE250FF4F22813381232BF4
S1130AA069F0880F991F880F991FFC01E250FF4FCE
S1130AB0828193810197938382830CC0880F991F4D
S1130AC0880F991FEC01C250DF4F88819981B9DEEC
S1130AD0198308838FEFE81AF80A4FE0E416F1044B
S1130AE041F6FF91EF91DF91CF91BF91AF919F912B
S1130AF08F917F916F915F914F913F912F911F91B2
S1130B000F91FF90EF900F900FBE0F901F901895CC
S1130B10AA980895DF92EF92FF920F931F93CF93B9
S1130B20DF93CDB7DEB729970FB6F894DEBF0FBEBB
S1130B30CDBF30916301323308F098C080916A01CF
S1130B40811159C00F2EFFE6EF2EF1E0FF2EF02D9C
S1130B50FE013396AE01445F5F4F0DEC1AE3D701FB
S1130B609D917D01BF0162507109909F812D1124D7
S1130B7086958695869520E3280FDB012C936F5F7D
S1130B807F4F880F282F220F220F820F981B905D12
S1130B90DB019C9310833396E417F50701F719865C
S1130BA08DEC389F812D1124869586958695880F26
S1130BB0982F990F990F890F381BB9F09091620102
S1130BC0992399F0832F90E09C01220F331F820F09
S1130BD0931F919581959109FE01E80FF91F20E279
S1130BE02287FE01E80FF91F238743E06AE0CE0164
S1130BF0019662DDC2C04AE0BE016E5F7F4F90E0A5
S1130C006ED480E289838A81882341F08B81882392
S1130C1039F08C81811106C083E005C081E003C0F6
S1130C2082E001C084E0282F30E0FE01E20FF31FD0
S1130C3090E29183FE01E20FF31F12828F5F90E036
S1130C40919581959109880F991F880F991F880F95
S1130C50991F8C5A9F4FBC0112F46F5F7F4F75959B
S1130C60679543E0CE01019627DD87C001E010E0DF
S1130C700F2EFDECFF2EF02D0F2EF9E2DF2EF02DBE
S1130C806894EE24E5F8809163018F9D912D1124E1
S1130C90969596959695990F292F220F220F920FCC
S1130CA0891B90E08017910721F4809162018130C3
S1130CB0A9F1F801E559FE4F90819D9D212D112444
S1130CC022952F70205D29839F9D812D1124869567
S1130CD0869586958F9D312D1124369536953695BA
S1130CE0330F432F440F440F340FB82FB31B3B2F44
S1130CF0305D3A83880F382F330F330F830F981BDF
S1130D00905D9B831C82203399F101C0EA8242E00A
S1130D10400F66E3CE01019617DC06C042E0400FA7
S1130D2066E38EE690E010DC0F5F1F4F0330110581
S1130D3009F0A9CF80916301853321F48091620188
S1130D40813081F080916E01882331F045E066E3C3
S1130D5080E690E0F9DB11C045E066E386E690E0CA
S1130D60F3DB0BC045E066E38CE690E0EDDB05C009
S1130D70E9828A81803351F2CACF29960FB6F8945A
S1130D80DEBF0FBECDBFDF91CF911F910F91FF90BA
S1130D90EF90DF900895CF93DF9363E080E0A1DBD1
S1130DA0CCEFD0E061E080E04DDB2197D9F7809172
S1130DB06401813009F443C020F0823009F44BC04F
S1130DC04DC0809163019DEC899F812D11248695EE
S1130DD0869586958230A1F028F4882349F08130E5
S1130DE059F03CC08430A1F078F08530A9F036C0C9
S1130DF082E790E0BADB32C08DE790E0B6DB2EC02C
S1130E0088E890E0B2DB2AC083E990E0AEDB26C03C
S1130E108EE990E0AADB22C089EA90E0A6DB43E0F9
S1130E2060E085EB90E090DB44E060E084EC90E0EF
S1130E308BDB45E060E083ED90E086DB0FC08091C2
S1130E406A01882321F088ED90E08FDB07C081EEF2
S1130E5090E08BDB03C08DEE90E087DB5BDEDF91FF
S1130E60CF9108959091620181E089278093620176
S1130E708AE895E0E6DC64EF71E082E397E032DD36
S1130E800895B89AC098A29AAA98BB9AC39889E67A
S1130E9085BD89B78F7389BF84E683BDAADCC3DCB3
S1130EA000E010E0CCE6D1E00F2EFFE6EF2EF1E0FB
S1130EB0FF2EF02DC80146D389930F5F1F4FCE1527
S1130EC0DF05C1F7809163019DEC899F812D112479
S1130ED086958695869590E0EC01CC0FDD1F8C0FEE
S1130EE09D1FEC01CD5FDF4F0FE611E00F2EF2E7FF
S1130EF0EF2EF1E0FF2EF02DCE0124D3F8018193E3
S1130F008F012196EE15FF05B9F780916D01EDEC87
S1130F108E9FE12D1124E695E695E695F0E0EF5FCE
S1130F20FB4FE491E3BD54DCB4DAA1DA34DF61DDD4
S1130F30FECFEF92FF920F931F93CF93DF93809195
S1130F406401811193C080916301CDEC8C9FC12D0C
S1130F501124C695C695C695CC0F9C2F990F990F51
S1130F60C90F982F9C1BC92F79F5823319F410925D
S1130F70630106C0CAE0C80FC0936301C23301F124
S1130F808DECC89FC12D1124C695C695C695D0E099
S1130F90CE01880F991FC80FD91FCD5FDF4F0FE611
S1130FA011E00F2EF2E7EF2EF1E0FF2EF02DCE012F
S1130FB0C9D2F80181938F012196EE15FF05B9F787
S1130FC08BEC96E03EDC52C08233D0F493E09C1B61
S1130FD0292F30E0F901E159FE4F80818F5F808332
S1130FE0992339F08C33C1F5F901E159FE4F108290
S1130FF033C0843689F5F901E159FE4F10822CC0C3
S1131000C150C13051F018F0C23001F125C0ECE6F6
S1131010F1E080818F5F80831FC080916D01865FC6
S1131020853618F480936D0102C010926D01809191
S11310306D01EDEC8E9FE12D1124E695E695E69584
S1131040F0E0EF5FFB4FE491E3BD06C0ECE6F1E0B6
S1131050928181E0892782831092620164EF71E0BA
S113106082E397E071DC8AE895E0EBDBDF91CF91D6
S11310701F910F91FF90EF900895EF92FF920F93BD
S11310801F93CF93DF9380916401811197C0C09126
S113109063018DECC89F812D1124869586958695D4
S11310A0880F982F990F990F890F9C2F981B892FC0
S11310B079F5C11104C082E38093630125C0CA504D
S11310C0C0936301C23301F18DECC89FC12D11247B
S11310D0C695C695C695D0E0CE01880F991FC80F56
S11310E0D91FCD5FDF4F0FE611E00F2EF2E7EF2E91
S11310F0F1E0FF2EF02DCE0125D2F80181938F016E
S11311002196EE15FF05B9F78BEC96E09ADB56C0F5
S1131110C233E8F433E0391B832F90E0FC01E1593A
S1131120FE4F2081215028F0FC01E159FE4F20831D
S11311303BC0332331F0FC01E159FE4F2BE3208304
S113114033C0FC01E159FE4F23E620832DC08150BA
S1131150813051F018F0823009F126C0ECE6F1E05C
S113116080818150808320C080916D018A508536B2
S113117018F480936D0103C084E680936D0180911F
S11311806D01EDEC8E9FE12D1124E695E695E69533
S1131190F0E0EF5FFB4FE491E3BD06C0ECE6F1E065
S11311A0928181E0892782831092620164EF71E069
S11311B082E397E0C9DB8AE895E043DBDF91CF91D6
S11311C01F910F91FF90EF90089580916401811118
S11311D00AC080916C0180936A0168EE73E08DE12E
S11311E09AE080DB08C0823031F460916B0170E0DA
S11311F08DE19AE077DB80916A01811101C0C09A88
S113120081E0809364018BEC96E01BDB0895C09829
S11312108DE19AE0BEDB80936B0182E080936401F0
S11312208BEC96E00EDB0895EF92FF920F931F93E1
S1131230CF93DF93C098809164018130A9F48DE14C
S11312409AE0A7DB11C0CE017DD1F80181938F0113
S11312502196EE15FF05B9F710926A011092640108
S11312608BEC96E0EEDA1AC080916301CDEC8C9F92
S1131270C12D1124C695C695C695D0E0CE01880F20
S1131280991FC80FD91FCD5FDF4F0FE611E00F2E56
S1131290F2E7EF2EF1E0FF2EF02DD5CFDF91CF91C5
S11312A01F910F91FF90EF900895AA990AC0209181
S11312B06E01213031F4BC01AA9A88E895E012DB72
S11312C00895AA98089524DC909163018DEC989F69
S11312D0812D1124869586958695880F282F220FB7
S11312E0220F820F98130DC0923330F58091640160
S11312F0813011F48CDF01C068DF82E390E0D5DF38
S1131300089531E0390F8DEC389F812D1124869595
S113131086958695880F282F220F220F820F232F60
S1131320281B243019F03093630103C0925090932A
S1131330630182E390E0B9DF0895EF92FF920F9387
S11313401F93CF93DF93E4DB80916401811167C025
S1131350909163018DEC989F812D1124869586953B
S11313608695880F282F220F220F820F292F281BE2
S113137059F49F5F909363011092620164EF71E0EE
S113138082E397E0AFDA4FC0921B909363019233EC
S113139010F5CFE6D1E000E010E00F2EFDECFF2EBB
S11313A0F02D6991809163018F9D812D1124869583
S11313B08695869590E09C01220F331F820F931F20
S11313C0800F911F8D5F9F4FC5D00F5F1F4F03305C
S11313D0110539F713C00CE611E0C0E0D0E00F2E80
S11313E0FFE6EF2EF1E0FF2EF02DF80161918F0161
S11313F0CE01B0D021960E151F05B9F710926201E7
S113140082E397E0C6DA83EF90E0AFD868EE73E04A
S11314108BEC96E067DA8AE895E013DA04C004DF1F
S11314208AE895E00EDA82E390E03FDFDF91CF9126
S11314301F910F91FF90EF90089568EE73E08DE196
S11314409AE050DA8AE895E0FCD980916A0181112A
S113145030C0809171018823B1F08150EFE6F1E052
S11314608283908191113AC090917001911136C09C
S1131470811132C0D9DE84EF91E017DF089584E64C
S113148090E013DF0895EFE6F1E08BE3828381813E
S1131490882321F08150809370010895EFE6F1E0F4
S11314A08BE3818380818823C9F0815080936F010D
S11314B00895815080936A01811108C0C09A84EF15
S11314C091E0F3DE8BEC96E0BCD90895863030F4DD
S11314D084E690E0EADE0895863088F20895BB271A
S11314E04A3031F4992322F4BDE2909581959F4FBF
S11314F001C0BB27FB015527AA27880F991FAA1FE4
S1131500A41710F0A41B83955051B9F7A05DAA331A
S113151008F0A95DA193009779F7B111B1931192E5
S1131520CB0100C0DC01FC01672F71917723E1F747
S1131530329704C07C916D9370836291AE17BF079C
S1131540C8F30895E199FECF9FBB8EBBE09A99271B
S11315508DB30895262FE199FECF9FBB8EBB2DBB83
S11315600FB6F894E29AE19A0FBE01960895F894A2
S1051570FFCFA7
S113157220C2EAEB2E00C2FBEAEB2E002020202040
S113158220003CD0E5E6E8EC2023313E003CD0E5E7
S1131592E6E8EC2023323E003CD0E5E6E8EC2023EA
S11315A2333E003CD0E5E6E8EC2023343E003CD058
S11315B2E5E6E8EC2023353E003CCDE0F1F2F0EE26
S11315C2E9EAE83E00C7E0E4E5F0E6EAE0202020AC
S11315D22020F100DFF0EAEEF1F2FC2020202020AE
S11315E2202500C7E2F3EA00C7E0E4E5F0E6EAE01A
S11315F200C8E4E5F220EEF2F1F7E5F200CFE0F301
S1111602E7E000D1EEF5F0E0EDE5EDEE0000DE
S9030000FC
